S010000074776F5F6C6564732E73726563B3
S11300000C9434000C943E000C943E000C943E007E
S11300100C943E000C943E000C943E000C943E0064
S11300200C943E000C943E000C943E000C943E0054
S11300300C943E000C943E000C943E000C943E0044
S11300400C943E000C943E000C943E000C943E0034
S11300500C943E000C943E000C943E000C943E0024
S11300600C943E000C943E0011241FBECFEFD8E048
S1130070DEBFCDBF0E9440000C9459000C940000D8
S1130080259A2D983D9A459A5098589A90E22FEFC8
S113009034E38CE0215030408040E1F700C00000A0
S11300A0489BF5CF85B1892785B988B1892788B957
S10900B0EECFF894FFCF2F
S9030000FC
