S0120000696E74657272757074732E73726563B2
S11300000C9434000C943E000C943E000C943E007E
S11300100C943E000C943E000C943E000C943E0064
S11300200C943E000C94F6000C943E000C943E009C
S11300300C943E000C94CF000C943E000C943E00B3
S11300400C94A8000C943E000C943E000C943E00CA
S11300500C943E000C943E000C943E000C943E0024
S11300600C943E000C943E0011241FBECFEFD8E048
S1130070DEBFCDBF0E9465000C941D010C940000EE
S1130080FC01408121E030E002C0220F331F6A9559
S1130090E2F7242B20830895FC01908121E030E0D5
S11300A002C0220F331F6A95E2F72095292320838B
S11300B00895FC01408121E030E002C0220F331F8B
S11300C06A95E2F724272083089565E084E290E0AE
S11300D00E94400065E085E290E00E944C0064E0EC
S11300E084E290E00E94400064E085E290E00E9497
S11300F04C0063E084E290E00E94400063E085E20B
S113010090E00E944C00E1E8F0E080818B7F8083E6
S1130110808183608083AFE6B0E08C9181608C93B2
S113012080818B7F80838081836080838C918160D8
S11301308C9380818E7F8083E1EBF0E08081866008
S11301408083E0E7F0E08081816080837894FFCF52
S11301501F920F920FB60F9211242F933F934F9338
S11301605F936F937F938F939F93AF93BF93EF931B
S1130170FF9365E085E290E00E945900FF91EF91C2
S1130180BF91AF919F918F917F916F915F914F91AB
S11301903F912F910F900FBE0F901F9018951F92B3
S11301A00F920FB60F9211242F933F934F935F93A7
S11301B06F937F938F939F93AF93BF93EF93FF932B
S11301C064E085E290E00E945900FF91EF91BF91B5
S11301D0AF919F918F917F916F915F914F913F91DB
S11301E02F910F900FBE0F901F9018951F920F9292
S11301F00FB60F9211242F933F934F935F936F93F6
S11302007F938F939F93AF93BF93EF93FF9363E099
S113021085E290E00E945900FF91EF91BF91AF9168
S11302209F918F917F916F915F914F913F912F910A
S11102300F900FBE0F901F901895F894FFCFFB
S9030000FC
