S01400006B6E696768745F72696465722E7372656316
S11300000C9434000C943E000C943E000C943E007E
S11300100C943E000C943E000C943E000C943E0064
S11300200C943E000C943E000C943E000C943E0054
S11300300C943E000C943E000C943E000C943E0044
S11300400C943E000C943E000C943E000C943E0034
S11300500C943E000C943E000C943E000C943E0024
S11300600C943E000C943E0011241FBECFEFD8E048
S1130070DEBFCDBF0E9440000C94A8000C94000089
S1130080389A409A399A419A3A9A429A3B9A439AB0
S11300903C9A449A5098589A51E042E034E028E05F
S11300A090E16FEF74E38CE0615070408040E1F7C1
S11300B000C00000489BF5CF88B1852788B96FEF51
S11300C070E782E0615070408040E1F700C00000BA
S11300D088B1852788B988B1842788B96FEF70E71C
S11300E082E0615070408040E1F700C0000088B1B8
S11300F0842788B988B1832788B96FEF70E782E0D5
S1130100615070408040E1F700C0000088B183274F
S113011088B988B1822788B96FEF70E782E06150AF
S113012070408040E1F700C0000088B1822788B9A0
S113013088B1892788B96FEF70E782E06150704019
S11301408040E1F700C0000088B1892788B9A9CFB1
S1070150F894FFCF4D
S9030000FC
