S01400006B6E696768745F72696465722E7372656316
S11300000C9434000C943E000C943E000C943E007E
S11300100C943E000C943E000C943E000C943E0064
S11300200C943E000C943E000C943E000C943E0054
S11300300C943E000C943E000C943E000C943E0044
S11300400C943E000C943E000C943E000C943E0034
S11300500C943E000C943E000C943E000C943E0024
S11300600C943E000C943E0011241FBECFEFD8E048
S1130070DEBFCDBF0E9440000C94CC000C94000065
S1130080389A4098399A41983A9A42983B9A4398B8
S11300903C9A44985098589A51E022E094E088E0C1
S11300A040E14899FECF38B1352738B93FEF64E3D2
S11300B07CE0315060407040E1F700C0000038B18E
S11300C0352738B938B1322738B93FEF64E37CE0DB
S11300D0315060407040E1F700C0000038B1322771
S11300E038B938B1392738B93FEF64E37CE031508F
S11300F060407040E1F700C0000038B1392738B9DA
S113010038B1382738B93FEF64E37CE031506040C0
S11301107040E1F700C0000038B1382738B938B171
S1130120342738B93FEF64E37CE0315060407040DD
S1130130E1F700C0000038B1342738B938B13827A6
S113014038B93FEF64E37CE0315060407040E1F740
S113015000C0000038B1382738B938B1392738B968
S11301603FEF64E37CE0315060407040E1F700C051
S1130170000038B1392738B938B1322738B93FEFE0
S113018064E37CE0315060407040E1F700C000005F
S10F019038B1322738B985CFF894FFCF7E
S9030000FC
