S00D00006D6F7273652E73726563F1
S11300000C9434000C943E000C943E000C943E007E
S11300100C943E000C943E000C943E000C943E0064
S11300200C943E000C943E000C943E000C943E0054
S11300300C943E000C943E000C943E000C943E0044
S11300400C943E000C943E000C943E000C943E0034
S11300500C943E000C943E000C943E000C943E0024
S11300600C943E000C943E0011241FBECFEFD8E048
S1130070DEBFCDBF0E9440000C941C010C94000014
S1130080259A2D9880E295B1982795B92FEF39E6F6
S113009098E1215030409040E1F700C0000095B154
S11300A0982795B92FEF33EC99E0215030409040D8
S11300B0E1F700C0000095B1982795B92FEF34E31C
S11300C09CE0215030409040E1F700C0000095B121
S11300D0982795B92FEF33EC99E0215030409040A8
S11300E0E1F700C0000095B1982795B92FEF34E3EC
S11300F09CE0215030409040E1F700C0000095B1F1
S1130100982795B92FEF37E893E12150304090407C
S1130110E1F700C0000095B1982795B92FEF34E3BB
S11301209CE0215030409040E1F700C0000095B1C0
S1130130982795B92FEF37E893E12150304090404C
S1130140E1F700C0000095B1982795B92FEF34E38B
S11301509CE0215030409040E1F700C0000095B190
S1130160982795B92FEF33EC99E021503040904017
S1130170E1F700C0000095B1982795B92FEF34E35B
S11301809CE0215030409040E1F700C0000095B160
S1130190982795B92FEF33EC99E0215030409040E7
S11301A0E1F700C0000095B1982795B92FEF39E623
S11301B098E1215030409040E1F700C0000095B133
S11301C0982795B92FEF33EC99E0215030409040B7
S11301D0E1F700C0000095B1982795B92FEF39E6F3
S11301E098E1215030409040E1F700C0000095B103
S11301F0982795B92FEF33EC99E021503040904087
S1130200E1F700C0000095B1982795B92FEF39E6C2
S113021098E1215030409040E1F700C0000095B1D2
S1130220982795B92FEF33ED90E32150304090405B
S10F0230E1F700C0000027CFF894FFCFD6
S9030000FC
